:030CC8000109011E
:080CC0001209B312080080F8CC
:100CA000E4FDFCC3ED9FEC9E5015E4FBFA0BBB008A
:0F0CB000010ABA01F8BBF4F50DBD00010C80E498
:010CBF002212
:100C5000EE704CEF14B408005045900C6875F0032A
:100C6000A4C58325F0C58373020C80020C84020C9A
:100C700088020C8C020C90020C94020C98020C9CC2
:100C80007580792275802422758030227580192222
:100C9000758012227580022275807822E4F5802208
:0E0BF2007F017E00120CA0AF09120C50AF095B
:100C0000EE704CEF14B408005045900C1875F003CA
:100C1000A4C58325F0C58373020C30020C34020C8A
:100C200038020C3C020C40020C44020C48020C4CF2
:100C300075A0FE2275A0FD2275A0FB2275A0F722EB
:100C400075A0EF2275A0DF2275A0BF2275A07F22BC
:10080000750A0830B033750801E508D39509401220
:10081000E509D395085007120BF2050980F2150976
:100820008017E508C395095010E508D395095007CE
:10083000120BF2150980F2050930B133750802E593
:1008400008D395094012E509D395085007120BF219
:10085000050980F215098017E508C395095010E5D0
:1008600008D395095007120BF2150980F2050930DB
:10087000B233750803E508D395094012E509D3950D
:10088000085007120BF2050980F215098017E508D8
:10089000C395095010E508D395095007120BF215BE
:1008A0000980F2050930B333750804E508D39509CA
:1008B0004012E509D395085007120BF2050980F2A2
:1008C00015098017E508C395095010E508D3950967
:1008D0005007120BF2150980F2050930B433750880
:1008E00005E508D395094012E509D395085007128C
:1008F0000BF2050980F215098017E508C395095028
:1009000010E508D395095007120BF2150980F2057E
:1009100009309533750806E508D395094012E509B5
:10092000D395085007120BF2050980F215098017BC
:10093000E508C395095010E508D395095007120B37
:10094000F2150980F2050930B633750807E508D3BA
:1009500095094012E509D395085007120BF20509D5
:1009600080F215098017E508C395095010E508D3F2
:1009700095095007120BF2150980F2050930B732BC
:10098000750808E508D395094011E509D395085085
:1009900007120BF2050980F2150922E508C3950933
:1009A0005010E508D395095007120BF2150980F293
:0209B000050937
:0109B2002222
:1009B300750A08309033750801E508D3950940128C
:1009C300E509D395085007120BF2050980F21509C2
:1009D3008017E508C395095010E508D3950950071A
:1009E300120BF2150980F20509309133750802E5FF
:1009F30008D395094012E509D395085007120BF265
:100A0300050980F215098017E508C395095010E51B
:100A130008D395095007120BF2150980F205093026
:100A23009233750803E508D395094012E509D39578
:100A3300085007120BF2050980F215098017E50823
:100A4300C395095010E508D395095007120BF21509
:100A53000980F20509309333750804E508D3950935
:100A63004012E509D395085007120BF2050980F2ED
:100A730015098017E508C395095010E508D39509B2
:100A83005007120BF2150980F205093094337508EB
:100A930005E508D395094012E509D39508500712D7
:100AA3000BF2050980F215098017E508C395095073
:100AB30010E508D395095007120BF2150980F205CA
:100AC30009309533750806E508D395094012E50901
:100AD300D395085007120BF2050980F21509801708
:100AE300E508C395095010E508D395095007120B83
:100AF300F2150980F20509309633750807E508D326
:100B030095094012E509D395085007120BF2050920
:100B130080F215098017E508C395095010E508D33D
:100B230095095007120BF2150980F2050930973227
:100B3300750808E508D395094011E509D3950850D0
:100B430007120BF2050980F2150922E508C395097E
:100B53005010E508D395095007120BF2150980F2DE
:020B6300050982
:010B6500226D
:03000000020B668A
:0C0B6600787FE4F6D8FD75810A020BAD23
:100B7200020CC0E493A3F8E493A34003F68001F2CD
:100B820008DFF48029E493A3F85407240CC8C33384
:100B9200C4540F4420C8834004F456800146F6DF53
:100BA200E4800B0102040810204080900CC8E47E0F
:100BB200019360BCA3FF543F30E509541FFEE49348
:100BC200A360010ECF54C025E060A840B8E493A30F
:100BD200FAE493A3F8E493A3C8C582C8CAC583CA3A
:100BE200F0A3C8C582C8CAC583CADFE9DEE780BEF2
:010CCB000028
:00000001FF
